{
  "_format": "hh-sol-artifact-1",
  "contractName": "JimboNFT",
  "sourceName": "contracts/jimboNFT.sol",
  "abi": [
    {
      "inputs": [],
      "stateMutability": "payable",
      "type": "constructor"
    },
    {
      "anonymous": false,
      "inputs": [
        {
          "indexed": true,
          "internalType": "address",
          "name": "owner",
          "type": "address"
        },
        {
          "indexed": true,
          "internalType": "address",
          "name": "approved",
          "type": "address"
        },
        {
          "indexed": true,
          "internalType": "uint256",
          "name": "tokenId",
          "type": "uint256"
        }
      ],
      "name": "Approval",
      "type": "event"
    },
    {
      "anonymous": false,
      "inputs": [
        {
          "indexed": true,
          "internalType": "address",
          "name": "owner",
          "type": "address"
        },
        {
          "indexed": true,
          "internalType": "address",
          "name": "operator",
          "type": "address"
        },
        {
          "indexed": false,
          "internalType": "bool",
          "name": "approved",
          "type": "bool"
        }
      ],
      "name": "ApprovalForAll",
      "type": "event"
    },
    {
      "anonymous": false,
      "inputs": [
        {
          "indexed": true,
          "internalType": "address",
          "name": "previousOwner",
          "type": "address"
        },
        {
          "indexed": true,
          "internalType": "address",
          "name": "newOwner",
          "type": "address"
        }
      ],
      "name": "OwnershipTransferred",
      "type": "event"
    },
    {
      "anonymous": false,
      "inputs": [
        {
          "indexed": true,
          "internalType": "address",
          "name": "from",
          "type": "address"
        },
        {
          "indexed": true,
          "internalType": "address",
          "name": "to",
          "type": "address"
        },
        {
          "indexed": true,
          "internalType": "uint256",
          "name": "tokenId",
          "type": "uint256"
        }
      ],
      "name": "Transfer",
      "type": "event"
    },
    {
      "inputs": [
        {
          "internalType": "address",
          "name": "to",
          "type": "address"
        },
        {
          "internalType": "uint256",
          "name": "tokenId",
          "type": "uint256"
        }
      ],
      "name": "approve",
      "outputs": [],
      "stateMutability": "nonpayable",
      "type": "function"
    },
    {
      "inputs": [
        {
          "internalType": "address",
          "name": "owner",
          "type": "address"
        }
      ],
      "name": "balanceOf",
      "outputs": [
        {
          "internalType": "uint256",
          "name": "",
          "type": "uint256"
        }
      ],
      "stateMutability": "view",
      "type": "function"
    },
    {
      "inputs": [
        {
          "internalType": "uint256",
          "name": "tokenId",
          "type": "uint256"
        }
      ],
      "name": "getApproved",
      "outputs": [
        {
          "internalType": "address",
          "name": "",
          "type": "address"
        }
      ],
      "stateMutability": "view",
      "type": "function"
    },
    {
      "inputs": [],
      "name": "hiddenMetadataUri",
      "outputs": [
        {
          "internalType": "string",
          "name": "",
          "type": "string"
        }
      ],
      "stateMutability": "view",
      "type": "function"
    },
    {
      "inputs": [
        {
          "internalType": "address",
          "name": "owner",
          "type": "address"
        },
        {
          "internalType": "address",
          "name": "operator",
          "type": "address"
        }
      ],
      "name": "isApprovedForAll",
      "outputs": [
        {
          "internalType": "bool",
          "name": "",
          "type": "bool"
        }
      ],
      "stateMutability": "view",
      "type": "function"
    },
    {
      "inputs": [],
      "name": "isPublicMintEnabled",
      "outputs": [
        {
          "internalType": "bool",
          "name": "",
          "type": "bool"
        }
      ],
      "stateMutability": "view",
      "type": "function"
    },
    {
      "inputs": [],
      "name": "maxPerWallet",
      "outputs": [
        {
          "internalType": "uint256",
          "name": "",
          "type": "uint256"
        }
      ],
      "stateMutability": "view",
      "type": "function"
    },
    {
      "inputs": [],
      "name": "maxSupply",
      "outputs": [
        {
          "internalType": "uint256",
          "name": "",
          "type": "uint256"
        }
      ],
      "stateMutability": "view",
      "type": "function"
    },
    {
      "inputs": [
        {
          "internalType": "uint256",
          "name": "quantity_",
          "type": "uint256"
        }
      ],
      "name": "mint",
      "outputs": [],
      "stateMutability": "payable",
      "type": "function"
    },
    {
      "inputs": [],
      "name": "mintPrice",
      "outputs": [
        {
          "internalType": "uint256",
          "name": "",
          "type": "uint256"
        }
      ],
      "stateMutability": "view",
      "type": "function"
    },
    {
      "inputs": [],
      "name": "name",
      "outputs": [
        {
          "internalType": "string",
          "name": "",
          "type": "string"
        }
      ],
      "stateMutability": "view",
      "type": "function"
    },
    {
      "inputs": [],
      "name": "owner",
      "outputs": [
        {
          "internalType": "address",
          "name": "",
          "type": "address"
        }
      ],
      "stateMutability": "view",
      "type": "function"
    },
    {
      "inputs": [
        {
          "internalType": "uint256",
          "name": "tokenId",
          "type": "uint256"
        }
      ],
      "name": "ownerOf",
      "outputs": [
        {
          "internalType": "address",
          "name": "",
          "type": "address"
        }
      ],
      "stateMutability": "view",
      "type": "function"
    },
    {
      "inputs": [],
      "name": "renounceOwnership",
      "outputs": [],
      "stateMutability": "nonpayable",
      "type": "function"
    },
    {
      "inputs": [],
      "name": "revealed",
      "outputs": [
        {
          "internalType": "bool",
          "name": "",
          "type": "bool"
        }
      ],
      "stateMutability": "view",
      "type": "function"
    },
    {
      "inputs": [
        {
          "internalType": "address",
          "name": "from",
          "type": "address"
        },
        {
          "internalType": "address",
          "name": "to",
          "type": "address"
        },
        {
          "internalType": "uint256",
          "name": "tokenId",
          "type": "uint256"
        }
      ],
      "name": "safeTransferFrom",
      "outputs": [],
      "stateMutability": "nonpayable",
      "type": "function"
    },
    {
      "inputs": [
        {
          "internalType": "address",
          "name": "from",
          "type": "address"
        },
        {
          "internalType": "address",
          "name": "to",
          "type": "address"
        },
        {
          "internalType": "uint256",
          "name": "tokenId",
          "type": "uint256"
        },
        {
          "internalType": "bytes",
          "name": "_data",
          "type": "bytes"
        }
      ],
      "name": "safeTransferFrom",
      "outputs": [],
      "stateMutability": "nonpayable",
      "type": "function"
    },
    {
      "inputs": [
        {
          "internalType": "address",
          "name": "operator",
          "type": "address"
        },
        {
          "internalType": "bool",
          "name": "approved",
          "type": "bool"
        }
      ],
      "name": "setApprovalForAll",
      "outputs": [],
      "stateMutability": "nonpayable",
      "type": "function"
    },
    {
      "inputs": [
        {
          "internalType": "string",
          "name": "baseTokenUri_",
          "type": "string"
        }
      ],
      "name": "setBaseTokenUri",
      "outputs": [],
      "stateMutability": "nonpayable",
      "type": "function"
    },
    {
      "inputs": [
        {
          "internalType": "string",
          "name": "_hiddenMetadataUri",
          "type": "string"
        }
      ],
      "name": "setHiddenMetadataUri",
      "outputs": [],
      "stateMutability": "nonpayable",
      "type": "function"
    },
    {
      "inputs": [
        {
          "internalType": "bool",
          "name": "isPublicMintEnabled_",
          "type": "bool"
        }
      ],
      "name": "setIsPublicMintEnabled",
      "outputs": [],
      "stateMutability": "nonpayable",
      "type": "function"
    },
    {
      "inputs": [
        {
          "internalType": "bool",
          "name": "_state",
          "type": "bool"
        }
      ],
      "name": "setRevealed",
      "outputs": [],
      "stateMutability": "nonpayable",
      "type": "function"
    },
    {
      "inputs": [
        {
          "internalType": "bytes4",
          "name": "interfaceId",
          "type": "bytes4"
        }
      ],
      "name": "supportsInterface",
      "outputs": [
        {
          "internalType": "bool",
          "name": "",
          "type": "bool"
        }
      ],
      "stateMutability": "view",
      "type": "function"
    },
    {
      "inputs": [],
      "name": "symbol",
      "outputs": [
        {
          "internalType": "string",
          "name": "",
          "type": "string"
        }
      ],
      "stateMutability": "view",
      "type": "function"
    },
    {
      "inputs": [
        {
          "internalType": "uint256",
          "name": "tokenId_",
          "type": "uint256"
        }
      ],
      "name": "tokenURI",
      "outputs": [
        {
          "internalType": "string",
          "name": "",
          "type": "string"
        }
      ],
      "stateMutability": "view",
      "type": "function"
    },
    {
      "inputs": [],
      "name": "totalSupply",
      "outputs": [
        {
          "internalType": "uint256",
          "name": "",
          "type": "uint256"
        }
      ],
      "stateMutability": "view",
      "type": "function"
    },
    {
      "inputs": [
        {
          "internalType": "address",
          "name": "from",
          "type": "address"
        },
        {
          "internalType": "address",
          "name": "to",
          "type": "address"
        },
        {
          "internalType": "uint256",
          "name": "tokenId",
          "type": "uint256"
        }
      ],
      "name": "transferFrom",
      "outputs": [],
      "stateMutability": "nonpayable",
      "type": "function"
    },
    {
      "inputs": [
        {
          "internalType": "address",
          "name": "newOwner",
          "type": "address"
        }
      ],
      "name": "transferOwnership",
      "outputs": [],
      "stateMutability": "nonpayable",
      "type": "function"
    },
    {
      "inputs": [
        {
          "internalType": "address",
          "name": "",
          "type": "address"
        }
      ],
      "name": "walletMints",
      "outputs": [
        {
          "internalType": "uint256",
          "name": "",
          "type": "uint256"
        }
      ],
      "stateMutability": "view",
      "type": "function"
    },
    {
      "inputs": [],
      "name": "withdraw",
      "outputs": [],
      "stateMutability": "nonpayable",
      "type": "function"
    }
  ],
  "bytecode": "0x60806040526000600b60016101000a81548160ff0219169083151502179055506040518060400160405280600881526020017f4a696d626f4e46540000000000000000000000000000000000000000000000008152506040518060400160405280600581526020017f4a494d424f0000000000000000000000000000000000000000000000000000008152508160009080519060200190620000a3929190620002d3565b508060019080519060200190620000bc929190620002d3565b505050620000df620000d36200013060201b60201c565b6200013860201b60201c565b600060078190555060006008819055506103e86009819055506045600a819055506200012a6040518060600160405280603c81526020016200401d603c9139620001fe60201b60201c565b6200046b565b600033905090565b6000600660009054906101000a900473ffffffffffffffffffffffffffffffffffffffff16905081600660006101000a81548173ffffffffffffffffffffffffffffffffffffffff021916908373ffffffffffffffffffffffffffffffffffffffff1602179055508173ffffffffffffffffffffffffffffffffffffffff168173ffffffffffffffffffffffffffffffffffffffff167f8be0079c531659141344cd1fd0a4f28419497f9722a3daafe3b4186f6b6457e060405160405180910390a35050565b6200020e6200013060201b60201c565b73ffffffffffffffffffffffffffffffffffffffff1662000234620002a960201b60201c565b73ffffffffffffffffffffffffffffffffffffffff16146200028d576040517f08c379a00000000000000000000000000000000000000000000000000000000081526004016200028490620003aa565b60405180910390fd5b80600e9080519060200190620002a5929190620002d3565b5050565b6000600660009054906101000a900473ffffffffffffffffffffffffffffffffffffffff16905090565b828054620002e190620003dd565b90600052602060002090601f01602090048101928262000305576000855562000351565b82601f106200032057805160ff191683800117855562000351565b8280016001018555821562000351579182015b828111156200035057825182559160200191906001019062000333565b5b50905062000360919062000364565b5090565b5b808211156200037f57600081600090555060010162000365565b5090565b600062000392602083620003cc565b91506200039f8262000442565b602082019050919050565b60006020820190508181036000830152620003c58162000383565b9050919050565b600082825260208201905092915050565b60006002820490506001821680620003f657607f821691505b602082108114156200040d576200040c62000413565b5b50919050565b7f4e487b7100000000000000000000000000000000000000000000000000000000600052602260045260246000fd5b7f4f776e61626c653a2063616c6c6572206973206e6f7420746865206f776e6572600082015250565b613ba2806200047b6000396000f3fe6080604052600436106101cd5760003560e01c806370a08231116100f7578063a45ba8e711610095578063e0a8085311610064578063e0a8085314610643578063e985e9c51461066c578063f0293fd3146106a9578063f2fde38b146106e6576101cd565b8063a45ba8e714610587578063b88d4fde146105b2578063c87b56dd146105db578063d5abeb0114610618576101cd565b806395652cfa116100d157806395652cfa146104ee57806395d89b4114610517578063a0712d6814610542578063a22cb4651461055e576101cd565b806370a082311461046f578063715018a6146104ac5780638da5cb5b146104c3576101cd565b806323b872dd1161016f5780634fdd43cb1161013e5780634fdd43cb146103b357806351830227146103dc5780636352211e146104075780636817c76c14610444576101cd565b806323b872dd1461031f5780633ccfd60b1461034857806342842e0e1461035f578063453c231014610388576101cd565b8063081812fc116101ab578063081812fc14610265578063095ea7b3146102a257806318160ddd146102cb5780632373ac22146102f6576101cd565b80630116bc2d146101d257806301ffc9a7146101fd57806306fdde031461023a575b600080fd5b3480156101de57600080fd5b506101e761070f565b6040516101f49190612e8e565b60405180910390f35b34801561020957600080fd5b50610224600480360381019061021f919061286e565b610722565b6040516102319190612e8e565b60405180910390f35b34801561024657600080fd5b5061024f610804565b60405161025c9190612ea9565b60405180910390f35b34801561027157600080fd5b5061028c60048036038101906102879190612946565b610896565b6040516102999190612e27565b60405180910390f35b3480156102ae57600080fd5b506102c960048036038101906102c49190612809565b61091b565b005b3480156102d757600080fd5b506102e0610a33565b6040516102ed919061316b565b60405180910390f35b34801561030257600080fd5b5061031d60048036038101906103189190612845565b610a39565b005b34801561032b57600080fd5b5061034660048036038101906103419190612703565b610ad2565b005b34801561035457600080fd5b5061035d610b32565b005b34801561036b57600080fd5b5061038660048036038101906103819190612703565b610c64565b005b34801561039457600080fd5b5061039d610c84565b6040516103aa919061316b565b60405180910390f35b3480156103bf57600080fd5b506103da60048036038101906103d59190612905565b610c8a565b005b3480156103e857600080fd5b506103f1610d20565b6040516103fe9190612e8e565b60405180910390f35b34801561041357600080fd5b5061042e60048036038101906104299190612946565b610d33565b60405161043b9190612e27565b60405180910390f35b34801561045057600080fd5b50610459610de5565b604051610466919061316b565b60405180910390f35b34801561047b57600080fd5b506104966004803603810190610491919061269e565b610deb565b6040516104a3919061316b565b60405180910390f35b3480156104b857600080fd5b506104c1610ea3565b005b3480156104cf57600080fd5b506104d8610f2b565b6040516104e59190612e27565b60405180910390f35b3480156104fa57600080fd5b50610515600480360381019061051091906128c0565b610f55565b005b34801561052357600080fd5b5061052c610fe7565b6040516105399190612ea9565b60405180910390f35b61055c60048036038101906105579190612946565b611079565b005b34801561056a57600080fd5b50610585600480360381019061058091906127cd565b61124f565b005b34801561059357600080fd5b5061059c611265565b6040516105a99190612ea9565b60405180910390f35b3480156105be57600080fd5b506105d960048036038101906105d49190612752565b6112f3565b005b3480156105e757600080fd5b5061060260048036038101906105fd9190612946565b611355565b60405161060f9190612ea9565b60405180910390f35b34801561062457600080fd5b5061062d611480565b60405161063a919061316b565b60405180910390f35b34801561064f57600080fd5b5061066a60048036038101906106659190612845565b611486565b005b34801561067857600080fd5b50610693600480360381019061068e91906126c7565b61151f565b6040516106a09190612e8e565b60405180910390f35b3480156106b557600080fd5b506106d060048036038101906106cb919061269e565b6115b3565b6040516106dd919061316b565b60405180910390f35b3480156106f257600080fd5b5061070d6004803603810190610708919061269e565b6115cb565b005b600b60009054906101000a900460ff1681565b60007f80ac58cd000000000000000000000000000000000000000000000000000000007bffffffffffffffffffffffffffffffffffffffffffffffffffffffff1916827bffffffffffffffffffffffffffffffffffffffffffffffffffffffff191614806107ed57507f5b5e139f000000000000000000000000000000000000000000000000000000007bffffffffffffffffffffffffffffffffffffffffffffffffffffffff1916827bffffffffffffffffffffffffffffffffffffffffffffffffffffffff1916145b806107fd57506107fc826116c3565b5b9050919050565b6060600080546108139061343b565b80601f016020809104026020016040519081016040528092919081815260200182805461083f9061343b565b801561088c5780601f106108615761010080835404028352916020019161088c565b820191906000526020600020905b81548152906001019060200180831161086f57829003601f168201915b5050505050905090565b60006108a18261172d565b6108e0576040517f08c379a00000000000000000000000000000000000000000000000000000000081526004016108d79061308b565b60405180910390fd5b6004600083815260200190815260200160002060009054906101000a900473ffffffffffffffffffffffffffffffffffffffff169050919050565b600061092682610d33565b90508073ffffffffffffffffffffffffffffffffffffffff168373ffffffffffffffffffffffffffffffffffffffff161415610997576040517f08c379a000000000000000000000000000000000000000000000000000000000815260040161098e906130eb565b60405180910390fd5b8073ffffffffffffffffffffffffffffffffffffffff166109b6611799565b73ffffffffffffffffffffffffffffffffffffffff1614806109e557506109e4816109df611799565b61151f565b5b610a24576040517f08c379a0000000000000000000000000000000000000000000000000000000008152600401610a1b9061300b565b60405180910390fd5b610a2e83836117a1565b505050565b60085481565b610a41611799565b73ffffffffffffffffffffffffffffffffffffffff16610a5f610f2b565b73ffffffffffffffffffffffffffffffffffffffff1614610ab5576040517f08c379a0000000000000000000000000000000000000000000000000000000008152600401610aac906130cb565b60405180910390fd5b80600b60006101000a81548160ff02191690831515021790555050565b610ae3610add611799565b8261185a565b610b22576040517f08c379a0000000000000000000000000000000000000000000000000000000008152600401610b199061310b565b60405180910390fd5b610b2d838383611938565b505050565b610b3a611799565b73ffffffffffffffffffffffffffffffffffffffff16610b58610f2b565b73ffffffffffffffffffffffffffffffffffffffff1614610bae576040517f08c379a0000000000000000000000000000000000000000000000000000000008152600401610ba5906130cb565b60405180910390fd5b6000610bb8610f2b565b73ffffffffffffffffffffffffffffffffffffffff1647604051610bdb90612e12565b60006040518083038185875af1925050503d8060008114610c18576040519150601f19603f3d011682016040523d82523d6000602084013e610c1d565b606091505b5050905080610c61576040517f08c379a0000000000000000000000000000000000000000000000000000000008152600401610c589061314b565b60405180910390fd5b50565b610c7f838383604051806020016040528060008152506112f3565b505050565b600a5481565b610c92611799565b73ffffffffffffffffffffffffffffffffffffffff16610cb0610f2b565b73ffffffffffffffffffffffffffffffffffffffff1614610d06576040517f08c379a0000000000000000000000000000000000000000000000000000000008152600401610cfd906130cb565b60405180910390fd5b80600e9080519060200190610d1c9291906123f2565b5050565b600b60019054906101000a900460ff1681565b6000806002600084815260200190815260200160002060009054906101000a900473ffffffffffffffffffffffffffffffffffffffff169050600073ffffffffffffffffffffffffffffffffffffffff168173ffffffffffffffffffffffffffffffffffffffff161415610ddc576040517f08c379a0000000000000000000000000000000000000000000000000000000008152600401610dd39061304b565b60405180910390fd5b80915050919050565b60075481565b60008073ffffffffffffffffffffffffffffffffffffffff168273ffffffffffffffffffffffffffffffffffffffff161415610e5c576040517f08c379a0000000000000000000000000000000000000000000000000000000008152600401610e539061302b565b60405180910390fd5b600360008373ffffffffffffffffffffffffffffffffffffffff1673ffffffffffffffffffffffffffffffffffffffff168152602001908152602001600020549050919050565b610eab611799565b73ffffffffffffffffffffffffffffffffffffffff16610ec9610f2b565b73ffffffffffffffffffffffffffffffffffffffff1614610f1f576040517f08c379a0000000000000000000000000000000000000000000000000000000008152600401610f16906130cb565b60405180910390fd5b610f296000611b9f565b565b6000600660009054906101000a900473ffffffffffffffffffffffffffffffffffffffff16905090565b610f5d611799565b73ffffffffffffffffffffffffffffffffffffffff16610f7b610f2b565b73ffffffffffffffffffffffffffffffffffffffff1614610fd1576040517f08c379a0000000000000000000000000000000000000000000000000000000008152600401610fc8906130cb565b60405180910390fd5b8181600d9190610fe2929190612478565b505050565b606060018054610ff69061343b565b80601f01602080910402602001604051908101604052809291908181526020018280546110229061343b565b801561106f5780601f106110445761010080835404028352916020019161106f565b820191906000526020600020905b81548152906001019060200180831161105257829003601f168201915b5050505050905090565b600b60009054906101000a900460ff166110c8576040517f08c379a00000000000000000000000000000000000000000000000000000000081526004016110bf90612f0b565b60405180910390fd5b600754816110d691906132f7565b3414611117576040517f08c379a000000000000000000000000000000000000000000000000000000000815260040161110e90612ecb565b60405180910390fd5b600954816008546111289190613270565b1115611169576040517f08c379a000000000000000000000000000000000000000000000000000000000815260040161116090612feb565b60405180910390fd5b600a5481600c60003373ffffffffffffffffffffffffffffffffffffffff1673ffffffffffffffffffffffffffffffffffffffff168152602001908152602001600020546111b79190613270565b106111f7576040517f08c379a00000000000000000000000000000000000000000000000000000000081526004016111ee906130ab565b60405180910390fd5b60005b8181101561124b57600060016008546112139190613270565b9050600860008154809291906112289061349e565b91905055506112373382611c65565b5080806112439061349e565b9150506111fa565b5050565b61126161125a611799565b8383611c83565b5050565b600e80546112729061343b565b80601f016020809104026020016040519081016040528092919081815260200182805461129e9061343b565b80156112eb5780601f106112c0576101008083540402835291602001916112eb565b820191906000526020600020905b8154815290600101906020018083116112ce57829003601f168201915b505050505081565b6113046112fe611799565b8361185a565b611343576040517f08c379a000000000000000000000000000000000000000000000000000000000815260040161133a9061310b565b60405180910390fd5b61134f84848484611df0565b50505050565b60606113608261172d565b61139f576040517f08c379a00000000000000000000000000000000000000000000000000000000081526004016113969061312b565b60405180910390fd5b60001515600b60019054906101000a900460ff161515141561144d57600e80546113c89061343b565b80601f01602080910402602001604051908101604052809291908181526020018280546113f49061343b565b80156114415780601f1061141657610100808354040283529160200191611441565b820191906000526020600020905b81548152906001019060200180831161142457829003601f168201915b5050505050905061147b565b600d61145883611e4c565b604051602001611469929190612de3565b60405160208183030381529060405290505b919050565b60095481565b61148e611799565b73ffffffffffffffffffffffffffffffffffffffff166114ac610f2b565b73ffffffffffffffffffffffffffffffffffffffff1614611502576040517f08c379a00000000000000000000000000000000000000000000000000000000081526004016114f9906130cb565b60405180910390fd5b80600b60016101000a81548160ff02191690831515021790555050565b6000600560008473ffffffffffffffffffffffffffffffffffffffff1673ffffffffffffffffffffffffffffffffffffffff16815260200190815260200160002060008373ffffffffffffffffffffffffffffffffffffffff1673ffffffffffffffffffffffffffffffffffffffff16815260200190815260200160002060009054906101000a900460ff16905092915050565b600c6020528060005260406000206000915090505481565b6115d3611799565b73ffffffffffffffffffffffffffffffffffffffff166115f1610f2b565b73ffffffffffffffffffffffffffffffffffffffff1614611647576040517f08c379a000000000000000000000000000000000000000000000000000000000815260040161163e906130cb565b60405180910390fd5b600073ffffffffffffffffffffffffffffffffffffffff168173ffffffffffffffffffffffffffffffffffffffff1614156116b7576040517f08c379a00000000000000000000000000000000000000000000000000000000081526004016116ae90612f2b565b60405180910390fd5b6116c081611b9f565b50565b60007f01ffc9a7000000000000000000000000000000000000000000000000000000007bffffffffffffffffffffffffffffffffffffffffffffffffffffffff1916827bffffffffffffffffffffffffffffffffffffffffffffffffffffffff1916149050919050565b60008073ffffffffffffffffffffffffffffffffffffffff166002600084815260200190815260200160002060009054906101000a900473ffffffffffffffffffffffffffffffffffffffff1673ffffffffffffffffffffffffffffffffffffffff1614159050919050565b600033905090565b816004600083815260200190815260200160002060006101000a81548173ffffffffffffffffffffffffffffffffffffffff021916908373ffffffffffffffffffffffffffffffffffffffff160217905550808273ffffffffffffffffffffffffffffffffffffffff1661181483610d33565b73ffffffffffffffffffffffffffffffffffffffff167f8c5be1e5ebec7d5bd14f71427d1e84f3dd0314c0f7b2291e5b200ac8c7c3b92560405160405180910390a45050565b60006118658261172d565b6118a4576040517f08c379a000000000000000000000000000000000000000000000000000000000815260040161189b90612fcb565b60405180910390fd5b60006118af83610d33565b90508073ffffffffffffffffffffffffffffffffffffffff168473ffffffffffffffffffffffffffffffffffffffff16148061191e57508373ffffffffffffffffffffffffffffffffffffffff1661190684610896565b73ffffffffffffffffffffffffffffffffffffffff16145b8061192f575061192e818561151f565b5b91505092915050565b8273ffffffffffffffffffffffffffffffffffffffff1661195882610d33565b73ffffffffffffffffffffffffffffffffffffffff16146119ae576040517f08c379a00000000000000000000000000000000000000000000000000000000081526004016119a590612f4b565b60405180910390fd5b600073ffffffffffffffffffffffffffffffffffffffff168273ffffffffffffffffffffffffffffffffffffffff161415611a1e576040517f08c379a0000000000000000000000000000000000000000000000000000000008152600401611a1590612f8b565b60405180910390fd5b611a29838383611ff9565b611a346000826117a1565b6001600360008573ffffffffffffffffffffffffffffffffffffffff1673ffffffffffffffffffffffffffffffffffffffff1681526020019081526020016000206000828254611a849190613351565b925050819055506001600360008473ffffffffffffffffffffffffffffffffffffffff1673ffffffffffffffffffffffffffffffffffffffff1681526020019081526020016000206000828254611adb9190613270565b92505081905550816002600083815260200190815260200160002060006101000a81548173ffffffffffffffffffffffffffffffffffffffff021916908373ffffffffffffffffffffffffffffffffffffffff160217905550808273ffffffffffffffffffffffffffffffffffffffff168473ffffffffffffffffffffffffffffffffffffffff167fddf252ad1be2c89b69c2b068fc378daa952ba7f163c4a11628f55a4df523b3ef60405160405180910390a4611b9a838383611ffe565b505050565b6000600660009054906101000a900473ffffffffffffffffffffffffffffffffffffffff16905081600660006101000a81548173ffffffffffffffffffffffffffffffffffffffff021916908373ffffffffffffffffffffffffffffffffffffffff1602179055508173ffffffffffffffffffffffffffffffffffffffff168173ffffffffffffffffffffffffffffffffffffffff167f8be0079c531659141344cd1fd0a4f28419497f9722a3daafe3b4186f6b6457e060405160405180910390a35050565b611c7f828260405180602001604052806000815250612003565b5050565b8173ffffffffffffffffffffffffffffffffffffffff168373ffffffffffffffffffffffffffffffffffffffff161415611cf2576040517f08c379a0000000000000000000000000000000000000000000000000000000008152600401611ce990612fab565b60405180910390fd5b80600560008573ffffffffffffffffffffffffffffffffffffffff1673ffffffffffffffffffffffffffffffffffffffff16815260200190815260200160002060008473ffffffffffffffffffffffffffffffffffffffff1673ffffffffffffffffffffffffffffffffffffffff16815260200190815260200160002060006101000a81548160ff0219169083151502179055508173ffffffffffffffffffffffffffffffffffffffff168373ffffffffffffffffffffffffffffffffffffffff167f17307eab39ab6107e8899845ad3d59bd9653f200f220920489ca2b5937696c3183604051611de39190612e8e565b60405180910390a3505050565b611dfb848484611938565b611e078484848461205e565b611e46576040517f08c379a0000000000000000000000000000000000000000000000000000000008152600401611e3d90612eeb565b60405180910390fd5b50505050565b60606000821415611e94576040518060400160405280600181526020017f30000000000000000000000000000000000000000000000000000000000000008152509050611ff4565b600082905060005b60008214611ec6578080611eaf9061349e565b915050600a82611ebf91906132c6565b9150611e9c565b60008167ffffffffffffffff811115611f08577f4e487b7100000000000000000000000000000000000000000000000000000000600052604160045260246000fd5b6040519080825280601f01601f191660200182016040528015611f3a5781602001600182028036833780820191505090505b5090505b60008514611fed57600182611f539190613351565b9150600a85611f6291906134e7565b6030611f6e9190613270565b60f81b818381518110611faa577f4e487b7100000000000000000000000000000000000000000000000000000000600052603260045260246000fd5b60200101907effffffffffffffffffffffffffffffffffffffffffffffffffffffffffffff1916908160001a905350600a85611fe691906132c6565b9450611f3e565b8093505050505b919050565b505050565b505050565b61200d83836121f5565b61201a600084848461205e565b612059576040517f08c379a000000000000000000000000000000000000000000000000000000000815260040161205090612eeb565b60405180910390fd5b505050565b600061207f8473ffffffffffffffffffffffffffffffffffffffff166123cf565b156121e8578373ffffffffffffffffffffffffffffffffffffffff1663150b7a026120a8611799565b8786866040518563ffffffff1660e01b81526004016120ca9493929190612e42565b602060405180830381600087803b1580156120e457600080fd5b505af192505050801561211557506040513d601f19601f820116820180604052508101906121129190612897565b60015b612198573d8060008114612145576040519150601f19603f3d011682016040523d82523d6000602084013e61214a565b606091505b50600081511415612190576040517f08c379a000000000000000000000000000000000000000000000000000000000815260040161218790612eeb565b60405180910390fd5b805181602001fd5b63150b7a0260e01b7bffffffffffffffffffffffffffffffffffffffffffffffffffffffff1916817bffffffffffffffffffffffffffffffffffffffffffffffffffffffff1916149150506121ed565b600190505b949350505050565b600073ffffffffffffffffffffffffffffffffffffffff168273ffffffffffffffffffffffffffffffffffffffff161415612265576040517f08c379a000000000000000000000000000000000000000000000000000000000815260040161225c9061306b565b60405180910390fd5b61226e8161172d565b156122ae576040517f08c379a00000000000000000000000000000000000000000000000000000000081526004016122a590612f6b565b60405180910390fd5b6122ba60008383611ff9565b6001600360008473ffffffffffffffffffffffffffffffffffffffff1673ffffffffffffffffffffffffffffffffffffffff168152602001908152602001600020600082825461230a9190613270565b92505081905550816002600083815260200190815260200160002060006101000a81548173ffffffffffffffffffffffffffffffffffffffff021916908373ffffffffffffffffffffffffffffffffffffffff160217905550808273ffffffffffffffffffffffffffffffffffffffff16600073ffffffffffffffffffffffffffffffffffffffff167fddf252ad1be2c89b69c2b068fc378daa952ba7f163c4a11628f55a4df523b3ef60405160405180910390a46123cb60008383611ffe565b5050565b6000808273ffffffffffffffffffffffffffffffffffffffff163b119050919050565b8280546123fe9061343b565b90600052602060002090601f0160209004810192826124205760008555612467565b82601f1061243957805160ff1916838001178555612467565b82800160010185558215612467579182015b8281111561246657825182559160200191906001019061244b565b5b50905061247491906124fe565b5090565b8280546124849061343b565b90600052602060002090601f0160209004810192826124a657600085556124ed565b82601f106124bf57803560ff19168380011785556124ed565b828001600101855582156124ed579182015b828111156124ec5782358255916020019190600101906124d1565b5b5090506124fa91906124fe565b5090565b5b808211156125175760008160009055506001016124ff565b5090565b600061252e612529846131ab565b613186565b90508281526020810184848401111561254657600080fd5b6125518482856133f9565b509392505050565b600061256c612567846131dc565b613186565b90508281526020810184848401111561258457600080fd5b61258f8482856133f9565b509392505050565b6000813590506125a681613b10565b92915050565b6000813590506125bb81613b27565b92915050565b6000813590506125d081613b3e565b92915050565b6000815190506125e581613b3e565b92915050565b600082601f8301126125fc57600080fd5b813561260c84826020860161251b565b91505092915050565b60008083601f84011261262757600080fd5b8235905067ffffffffffffffff81111561264057600080fd5b60208301915083600182028301111561265857600080fd5b9250929050565b600082601f83011261267057600080fd5b8135612680848260208601612559565b91505092915050565b60008135905061269881613b55565b92915050565b6000602082840312156126b057600080fd5b60006126be84828501612597565b91505092915050565b600080604083850312156126da57600080fd5b60006126e885828601612597565b92505060206126f985828601612597565b9150509250929050565b60008060006060848603121561271857600080fd5b600061272686828701612597565b935050602061273786828701612597565b925050604061274886828701612689565b9150509250925092565b6000806000806080858703121561276857600080fd5b600061277687828801612597565b945050602061278787828801612597565b935050604061279887828801612689565b925050606085013567ffffffffffffffff8111156127b557600080fd5b6127c1878288016125eb565b91505092959194509250565b600080604083850312156127e057600080fd5b60006127ee85828601612597565b92505060206127ff858286016125ac565b9150509250929050565b6000806040838503121561281c57600080fd5b600061282a85828601612597565b925050602061283b85828601612689565b9150509250929050565b60006020828403121561285757600080fd5b6000612865848285016125ac565b91505092915050565b60006020828403121561288057600080fd5b600061288e848285016125c1565b91505092915050565b6000602082840312156128a957600080fd5b60006128b7848285016125d6565b91505092915050565b600080602083850312156128d357600080fd5b600083013567ffffffffffffffff8111156128ed57600080fd5b6128f985828601612615565b92509250509250929050565b60006020828403121561291757600080fd5b600082013567ffffffffffffffff81111561293157600080fd5b61293d8482850161265f565b91505092915050565b60006020828403121561295857600080fd5b600061296684828501612689565b91505092915050565b61297881613385565b82525050565b61298781613397565b82525050565b600061299882613222565b6129a28185613238565b93506129b2818560208601613408565b6129bb816135d4565b840191505092915050565b60006129d18261322d565b6129db8185613254565b93506129eb818560208601613408565b6129f4816135d4565b840191505092915050565b6000612a0a8261322d565b612a148185613265565b9350612a24818560208601613408565b80840191505092915050565b60008154612a3d8161343b565b612a478186613265565b94506001821660008114612a625760018114612a7357612aa6565b60ff19831686528186019350612aa6565b612a7c8561320d565b60005b83811015612a9e57815481890152600182019150602081019050612a7f565b838801955050505b50505092915050565b6000612abc601083613254565b9150612ac7826135e5565b602082019050919050565b6000612adf603283613254565b9150612aea8261360e565b604082019050919050565b6000612b02601383613254565b9150612b0d8261365d565b602082019050919050565b6000612b25602683613254565b9150612b3082613686565b604082019050919050565b6000612b48602583613254565b9150612b53826136d5565b604082019050919050565b6000612b6b601c83613254565b9150612b7682613724565b602082019050919050565b6000612b8e602483613254565b9150612b998261374d565b604082019050919050565b6000612bb1601983613254565b9150612bbc8261379c565b602082019050919050565b6000612bd4602c83613254565b9150612bdf826137c5565b604082019050919050565b6000612bf7600883613254565b9150612c0282613814565b602082019050919050565b6000612c1a603883613254565b9150612c258261383d565b604082019050919050565b6000612c3d602a83613254565b9150612c488261388c565b604082019050919050565b6000612c60602983613254565b9150612c6b826138db565b604082019050919050565b6000612c83602083613254565b9150612c8e8261392a565b602082019050919050565b6000612ca6602c83613254565b9150612cb182613953565b604082019050919050565b6000612cc9600583613265565b9150612cd4826139a2565b600582019050919050565b6000612cec601183613254565b9150612cf7826139cb565b602082019050919050565b6000612d0f602083613254565b9150612d1a826139f4565b602082019050919050565b6000612d32602183613254565b9150612d3d82613a1d565b604082019050919050565b6000612d55600083613249565b9150612d6082613a6c565b600082019050919050565b6000612d78603183613254565b9150612d8382613a6f565b604082019050919050565b6000612d9b601583613254565b9150612da682613abe565b602082019050919050565b6000612dbe600f83613254565b9150612dc982613ae7565b602082019050919050565b612ddd816133ef565b82525050565b6000612def8285612a30565b9150612dfb82846129ff565b9150612e0682612cbc565b91508190509392505050565b6000612e1d82612d48565b9150819050919050565b6000602082019050612e3c600083018461296f565b92915050565b6000608082019050612e57600083018761296f565b612e64602083018661296f565b612e716040830185612dd4565b8181036060830152612e83818461298d565b905095945050505050565b6000602082019050612ea3600083018461297e565b92915050565b60006020820190508181036000830152612ec381846129c6565b905092915050565b60006020820190508181036000830152612ee481612aaf565b9050919050565b60006020820190508181036000830152612f0481612ad2565b9050919050565b60006020820190508181036000830152612f2481612af5565b9050919050565b60006020820190508181036000830152612f4481612b18565b9050919050565b60006020820190508181036000830152612f6481612b3b565b9050919050565b60006020820190508181036000830152612f8481612b5e565b9050919050565b60006020820190508181036000830152612fa481612b81565b9050919050565b60006020820190508181036000830152612fc481612ba4565b9050919050565b60006020820190508181036000830152612fe481612bc7565b9050919050565b6000602082019050818103600083015261300481612bea565b9050919050565b6000602082019050818103600083015261302481612c0d565b9050919050565b6000602082019050818103600083015261304481612c30565b9050919050565b6000602082019050818103600083015261306481612c53565b9050919050565b6000602082019050818103600083015261308481612c76565b9050919050565b600060208201905081810360008301526130a481612c99565b9050919050565b600060208201905081810360008301526130c481612cdf565b9050919050565b600060208201905081810360008301526130e481612d02565b9050919050565b6000602082019050818103600083015261310481612d25565b9050919050565b6000602082019050818103600083015261312481612d6b565b9050919050565b6000602082019050818103600083015261314481612d8e565b9050919050565b6000602082019050818103600083015261316481612db1565b9050919050565b60006020820190506131806000830184612dd4565b92915050565b60006131906131a1565b905061319c828261346d565b919050565b6000604051905090565b600067ffffffffffffffff8211156131c6576131c56135a5565b5b6131cf826135d4565b9050602081019050919050565b600067ffffffffffffffff8211156131f7576131f66135a5565b5b613200826135d4565b9050602081019050919050565b60008190508160005260206000209050919050565b600081519050919050565b600081519050919050565b600082825260208201905092915050565b600081905092915050565b600082825260208201905092915050565b600081905092915050565b600061327b826133ef565b9150613286836133ef565b9250827fffffffffffffffffffffffffffffffffffffffffffffffffffffffffffffffff038211156132bb576132ba613518565b5b828201905092915050565b60006132d1826133ef565b91506132dc836133ef565b9250826132ec576132eb613547565b5b828204905092915050565b6000613302826133ef565b915061330d836133ef565b9250817fffffffffffffffffffffffffffffffffffffffffffffffffffffffffffffffff048311821515161561334657613345613518565b5b828202905092915050565b600061335c826133ef565b9150613367836133ef565b92508282101561337a57613379613518565b5b828203905092915050565b6000613390826133cf565b9050919050565b60008115159050919050565b60007fffffffff0000000000000000000000000000000000000000000000000000000082169050919050565b600073ffffffffffffffffffffffffffffffffffffffff82169050919050565b6000819050919050565b82818337600083830152505050565b60005b8381101561342657808201518184015260208101905061340b565b83811115613435576000848401525b50505050565b6000600282049050600182168061345357607f821691505b6020821081141561346757613466613576565b5b50919050565b613476826135d4565b810181811067ffffffffffffffff82111715613495576134946135a5565b5b80604052505050565b60006134a9826133ef565b91507fffffffffffffffffffffffffffffffffffffffffffffffffffffffffffffffff8214156134dc576134db613518565b5b600182019050919050565b60006134f2826133ef565b91506134fd836133ef565b92508261350d5761350c613547565b5b828206905092915050565b7f4e487b7100000000000000000000000000000000000000000000000000000000600052601160045260246000fd5b7f4e487b7100000000000000000000000000000000000000000000000000000000600052601260045260246000fd5b7f4e487b7100000000000000000000000000000000000000000000000000000000600052602260045260246000fd5b7f4e487b7100000000000000000000000000000000000000000000000000000000600052604160045260246000fd5b6000601f19601f8301169050919050565b7f77726f6e67206d696e742076616c756500000000000000000000000000000000600082015250565b7f4552433732313a207472616e7366657220746f206e6f6e20455243373231526560008201527f63656976657220696d706c656d656e7465720000000000000000000000000000602082015250565b7f6d696e74696e67206e6f7420656e61626c656400000000000000000000000000600082015250565b7f4f776e61626c653a206e6577206f776e657220697320746865207a65726f206160008201527f6464726573730000000000000000000000000000000000000000000000000000602082015250565b7f4552433732313a207472616e736665722066726f6d20696e636f72726563742060008201527f6f776e6572000000000000000000000000000000000000000000000000000000602082015250565b7f4552433732313a20746f6b656e20616c7265616479206d696e74656400000000600082015250565b7f4552433732313a207472616e7366657220746f20746865207a65726f2061646460008201527f7265737300000000000000000000000000000000000000000000000000000000602082015250565b7f4552433732313a20617070726f766520746f2063616c6c657200000000000000600082015250565b7f4552433732313a206f70657261746f7220717565727920666f72206e6f6e657860008201527f697374656e7420746f6b656e0000000000000000000000000000000000000000602082015250565b7f736f6c64206f7574000000000000000000000000000000000000000000000000600082015250565b7f4552433732313a20617070726f76652063616c6c6572206973206e6f74206f7760008201527f6e6572206e6f7220617070726f76656420666f7220616c6c0000000000000000602082015250565b7f4552433732313a2062616c616e636520717565727920666f7220746865207a6560008201527f726f206164647265737300000000000000000000000000000000000000000000602082015250565b7f4552433732313a206f776e657220717565727920666f72206e6f6e657869737460008201527f656e7420746f6b656e0000000000000000000000000000000000000000000000602082015250565b7f4552433732313a206d696e7420746f20746865207a65726f2061646472657373600082015250565b7f4552433732313a20617070726f76656420717565727920666f72206e6f6e657860008201527f697374656e7420746f6b656e0000000000000000000000000000000000000000602082015250565b7f2e6a736f6e000000000000000000000000000000000000000000000000000000600082015250565b7f657863656564206d61782077616c6c6574000000000000000000000000000000600082015250565b7f4f776e61626c653a2063616c6c6572206973206e6f7420746865206f776e6572600082015250565b7f4552433732313a20617070726f76616c20746f2063757272656e74206f776e6560008201527f7200000000000000000000000000000000000000000000000000000000000000602082015250565b50565b7f4552433732313a207472616e736665722063616c6c6572206973206e6f74206f60008201527f776e6572206e6f7220617070726f766564000000000000000000000000000000602082015250565b7f546f6b656e20646f6573206e6f74206578697374210000000000000000000000600082015250565b7f7769746864726177206661696c65640000000000000000000000000000000000600082015250565b613b1981613385565b8114613b2457600080fd5b50565b613b3081613397565b8114613b3b57600080fd5b50565b613b47816133a3565b8114613b5257600080fd5b50565b613b5e816133ef565b8114613b6957600080fd5b5056fea2646970667358221220d9d9477ccc6052d00d3997dff57f74b6d5d514f6e85e8919d62be7062f121cb264736f6c63430008040033697066733a2f2f516d626a566343374347516933446a4a63506262696f554c696d38686d68714c64576e6d57546a4a754e466e46412f302e6a736f6e",
  "linkReferences": {},
  "deployedLinkReferences": {}
}